{
    "contractName": "Run",
    "abi": [
        {
            "inputs": [],
            "stateMutability": "nonpayable",
            "type": "constructor"
        },
        {
            "anonymous": false,
            "inputs": [
                {
                    "indexed": false,
                    "internalType": "address",
                    "name": "pagador",
                    "type": "address"
                },
                {
                    "indexed": false,
                    "internalType": "uint256",
                    "name": "troco",
                    "type": "uint256"
                }
            ],
            "name": "TrocoEnviado",
            "type": "event"
        },
        {
            "inputs": [
                {
                    "internalType": "uint256",
                    "name": "palpiteEnviado",
                    "type": "uint256"
                },
                {
                    "components": [
                        {
                            "internalType": "uint256",
                            "name": "custo",
                            "type": "uint256"
                        },
                        {
                            "internalType": "string",
                            "name": "masmorra",
                            "type": "string"
                        }
                    ],
                    "internalType": "struct Run.Corrida",
                    "name": "_corrida",
                    "type": "tuple"
                }
            ],
            "name": "sendMoney",
            "outputs": [],
            "stateMutability": "payable",
            "type": "function"
        }
    ],
    "bytecode": "608060405234801561001057600080fd5b50600080546001600160a01b03191633179055610222806100326000396000f3fe60806040526004361061001e5760003560e01c8063c1dec86014610023575b600080fd5b61003661003136600461010b565b610038565b005b6000546001600160a01b0316331461006b5760405162461bcd60e51b81526004016100629061016f565b60405180910390fd5b803534101561008c5760405162461bcd60e51b8152600401610062906101b5565b670de0b6b3a763ffff193401801561010657604051339082156108fc029083906000818181858888f193505050501580156100cb573d6000803e3d6000fd5b507fb2f6b324486033af62b73731e627bef2c0b15dbfb1746f6beb433455e40cb09133826040516100fd929190610156565b60405180910390a15b505050565b6000806040838503121561011d578182fd5b82359150602083013567ffffffffffffffff81111561013a578182fd5b83016040818603121561014b578182fd5b809150509250929050565b6001600160a01b03929092168252602082015260400190565b60208082526026908201527f4f20646f6e6f20646f20636f6e747261746f206e616f20706f64652066617a6560408201526572206973736f60d01b606082015260800190565b6020808252601e908201527f41207461786120706172612070616c706974617220652031206574686572000060408201526060019056fea26469706673582212207ee55c8bd2d2ae2ff1b5d34aee20c7904ce9eb377ada64b9a61b29ebfe94286064736f6c63430007000033",
    "sourcePath": "c:/Users/ajnas/OneDrive/Documentos/PUC-Rio/2020-2/INF1305 - Blockchain/thing/thing/lib/Run.sol",
    "compiler": {
        "name": "solc",
        "version": "0.7.0+commit.9e61f92b"
    },
    "functionHashes": {
        "sendMoney(uint256,(uint256,string))": "c1dec860"
    },
    "gasEstimates": {
        "creation": {
            "codeDepositCost": "109200",
            "executionCost": "20994",
            "totalCost": "130194"
        },
        "external": {
            "sendMoney(uint256,(uint256,string))": "infinite"
        }
    }
}